{"abi":[{"type":"constructor","inputs":[{"name":"_initialOwner","type":"address","internalType":"address"},{"name":"_semaphoreVerifier","type":"address","internalType":"address"}],"stateMutability":"nonpayable"},{"type":"function","name":"addRelayer","inputs":[{"name":"_relayer","type":"address","internalType":"address"}],"outputs":[],"stateMutability":"nonpayable"},{"type":"function","name":"authorizedRelayers","inputs":[{"name":"","type":"address","internalType":"address"}],"outputs":[{"name":"","type":"bool","internalType":"bool"}],"stateMutability":"view"},{"type":"function","name":"candidateCount","inputs":[],"outputs":[{"name":"","type":"uint256","internalType":"uint256"}],"stateMutability":"view"},{"type":"function","name":"castVote","inputs":[{"name":"candidateId","type":"uint256","internalType":"uint256"},{"name":"nullifierHash","type":"uint256","internalType":"uint256"},{"name":"a","type":"uint256[2]","internalType":"uint256[2]"},{"name":"b","type":"uint256[2][2]","internalType":"uint256[2][2]"},{"name":"c","type":"uint256[2]","internalType":"uint256[2]"},{"name":"publicSignals","type":"uint256[4]","internalType":"uint256[4]"},{"name":"merkleTreeDepth","type":"uint256","internalType":"uint256"}],"outputs":[],"stateMutability":"nonpayable"},{"type":"function","name":"getAllVoteCounts","inputs":[],"outputs":[{"name":"","type":"uint256[]","internalType":"uint256[]"}],"stateMutability":"view"},{"type":"function","name":"getRelayers","inputs":[],"outputs":[{"name":"","type":"address[]","internalType":"address[]"}],"stateMutability":"view"},{"type":"function","name":"getRemainingTime","inputs":[],"outputs":[{"name":"","type":"uint256","internalType":"uint256"}],"stateMutability":"view"},{"type":"function","name":"getResultPercentages","inputs":[],"outputs":[{"name":"","type":"uint256[]","internalType":"uint256[]"}],"stateMutability":"view"},{"type":"function","name":"getVoteCount","inputs":[{"name":"candidateId","type":"uint256","internalType":"uint256"}],"outputs":[{"name":"","type":"uint256","internalType":"uint256"}],"stateMutability":"view"},{"type":"function","name":"getVotingInfo","inputs":[],"outputs":[{"name":"groupId","type":"uint256","internalType":"uint256"},{"name":"startTime","type":"uint256","internalType":"uint256"},{"name":"endTime","type":"uint256","internalType":"uint256"},{"name":"numCandidates","type":"uint256","internalType":"uint256"},{"name":"votes","type":"uint256","internalType":"uint256"}],"stateMutability":"view"},{"type":"function","name":"initializeVoting","inputs":[{"name":"_groupId","type":"uint256","internalType":"uint256"},{"name":"_startTime","type":"uint256","internalType":"uint256"},{"name":"_endTime","type":"uint256","internalType":"uint256"},{"name":"_candidateCount","type":"uint256","internalType":"uint256"}],"outputs":[],"stateMutability":"nonpayable"},{"type":"function","name":"isNullifierUsed","inputs":[{"name":"nullifierHash","type":"uint256","internalType":"uint256"}],"outputs":[{"name":"","type":"bool","internalType":"bool"}],"stateMutability":"view"},{"type":"function","name":"isVotingActive","inputs":[],"outputs":[{"name":"","type":"bool","internalType":"bool"}],"stateMutability":"view"},{"type":"function","name":"owner","inputs":[],"outputs":[{"name":"","type":"address","internalType":"address"}],"stateMutability":"view"},{"type":"function","name":"pauseVoting","inputs":[],"outputs":[],"stateMutability":"nonpayable"},{"type":"function","name":"paused","inputs":[],"outputs":[{"name":"","type":"bool","internalType":"bool"}],"stateMutability":"view"},{"type":"function","name":"relayerAddresses","inputs":[{"name":"","type":"uint256","internalType":"uint256"}],"outputs":[{"name":"","type":"address","internalType":"address"}],"stateMutability":"view"},{"type":"function","name":"removeRelayer","inputs":[{"name":"_relayer","type":"address","internalType":"address"}],"outputs":[],"stateMutability":"nonpayable"},{"type":"function","name":"renounceOwnership","inputs":[],"outputs":[],"stateMutability":"nonpayable"},{"type":"function","name":"semaphoreVerifier","inputs":[],"outputs":[{"name":"","type":"address","internalType":"contract ISemaphoreVerifier"}],"stateMutability":"view"},{"type":"function","name":"totalVotes","inputs":[],"outputs":[{"name":"","type":"uint256","internalType":"uint256"}],"stateMutability":"view"},{"type":"function","name":"transferOwnership","inputs":[{"name":"newOwner","type":"address","internalType":"address"}],"outputs":[],"stateMutability":"nonpayable"},{"type":"function","name":"unpauseVoting","inputs":[],"outputs":[],"stateMutability":"nonpayable"},{"type":"function","name":"usedNullifiers","inputs":[{"name":"","type":"uint256","internalType":"uint256"}],"outputs":[{"name":"","type":"bool","internalType":"bool"}],"stateMutability":"view"},{"type":"function","name":"voteCounts","inputs":[{"name":"","type":"uint256","internalType":"uint256"}],"outputs":[{"name":"","type":"uint256","internalType":"uint256"}],"stateMutability":"view"},{"type":"function","name":"votingEndTime","inputs":[],"outputs":[{"name":"","type":"uint256","internalType":"uint256"}],"stateMutability":"view"},{"type":"function","name":"votingGroupId","inputs":[],"outputs":[{"name":"","type":"uint256","internalType":"uint256"}],"stateMutability":"view"},{"type":"function","name":"votingInitialized","inputs":[],"outputs":[{"name":"","type":"bool","internalType":"bool"}],"stateMutability":"view"},{"type":"function","name":"votingStartTime","inputs":[],"outputs":[{"name":"","type":"uint256","internalType":"uint256"}],"stateMutability":"view"},{"type":"event","name":"OwnershipTransferred","inputs":[{"name":"previousOwner","type":"address","indexed":true,"internalType":"address"},{"name":"newOwner","type":"address","indexed":true,"internalType":"address"}],"anonymous":false},{"type":"event","name":"Paused","inputs":[{"name":"account","type":"address","indexed":false,"internalType":"address"}],"anonymous":false},{"type":"event","name":"RelayerAdded","inputs":[{"name":"relayer","type":"address","indexed":true,"internalType":"address"}],"anonymous":false},{"type":"event","name":"RelayerRemoved","inputs":[{"name":"relayer","type":"address","indexed":true,"internalType":"address"}],"anonymous":false},{"type":"event","name":"Unpaused","inputs":[{"name":"account","type":"address","indexed":false,"internalType":"address"}],"anonymous":false},{"type":"event","name":"VoteCast","inputs":[{"name":"candidateId","type":"uint256","indexed":true,"internalType":"uint256"},{"name":"nullifierHash","type":"uint256","indexed":true,"internalType":"uint256"},{"name":"relayer","type":"address","indexed":true,"internalType":"address"},{"name":"timestamp","type":"uint256","indexed":false,"internalType":"uint256"}],"anonymous":false},{"type":"event","name":"VotingConfigured","inputs":[{"name":"groupId","type":"uint256","indexed":false,"internalType":"uint256"},{"name":"startTime","type":"uint256","indexed":false,"internalType":"uint256"},{"name":"endTime","type":"uint256","indexed":false,"internalType":"uint256"},{"name":"candidateCount","type":"uint256","indexed":false,"internalType":"uint256"}],"anonymous":false},{"type":"error","name":"EnforcedPause","inputs":[]},{"type":"error","name":"ExpectedPause","inputs":[]},{"type":"error","name":"InvalidCandidate","inputs":[]},{"type":"error","name":"InvalidProof","inputs":[]},{"type":"error","name":"InvalidTimeRange","inputs":[]},{"type":"error","name":"NullifierAlreadyUsed","inputs":[]},{"type":"error","name":"OwnableInvalidOwner","inputs":[{"name":"owner","type":"address","internalType":"address"}]},{"type":"error","name":"OwnableUnauthorizedAccount","inputs":[{"name":"account","type":"address","internalType":"address"}]},{"type":"error","name":"ReentrancyGuardReentrantCall","inputs":[]},{"type":"error","name":"UnauthorizedRelayer","inputs":[]},{"type":"error","name":"VotingAlreadyInitialized","inputs":[]},{"type":"error","name":"VotingNotActive","inputs":[]}],"bytecode":{"object":"0x60a060405234801561000f575f5ffd5b5060405161232238038061232283398181016040528101906100319190610213565b815f73ffffffffffffffffffffffffffffffffffffffff168173ffffffffffffffffffffffffffffffffffffffff16036100a2575f6040517f1e4fbdf70000000000000000000000000000000000000000000000000000000081526004016100999190610260565b60405180910390fd5b6100b1816100f460201b60201c565b50600180819055508073ffffffffffffffffffffffffffffffffffffffff1660808173ffffffffffffffffffffffffffffffffffffffff16815250505050610279565b5f5f5f9054906101000a900473ffffffffffffffffffffffffffffffffffffffff169050815f5f6101000a81548173ffffffffffffffffffffffffffffffffffffffff021916908373ffffffffffffffffffffffffffffffffffffffff1602179055508173ffffffffffffffffffffffffffffffffffffffff168173ffffffffffffffffffffffffffffffffffffffff167f8be0079c531659141344cd1fd0a4f28419497f9722a3daafe3b4186f6b6457e060405160405180910390a35050565b5f5ffd5b5f73ffffffffffffffffffffffffffffffffffffffff82169050919050565b5f6101e2826101b9565b9050919050565b6101f2816101d8565b81146101fc575f5ffd5b50565b5f8151905061020d816101e9565b92915050565b5f5f60408385031215610229576102286101b5565b5b5f610236858286016101ff565b9250506020610247858286016101ff565b9150509250929050565b61025a816101d8565b82525050565b5f6020820190506102735f830184610251565b92915050565b60805161208a6102985f395f818161057b0152610951015261208a5ff3fe608060405234801561000f575f5ffd5b50600436106101cd575f3560e01c8063715018a611610102578063b2c2f2e8116100a0578063e7e7dddd1161006f578063e7e7dddd146104ff578063efb98bcf1461051d578063f2fde38b1461053b578063f3cdcd1e14610557576101cd565b8063b2c2f2e814610465578063c6c0572d14610495578063cd59f237146104c5578063dd39f00d146104e3576101cd565b80638da5cb5b116100dc5780638da5cb5b146103c9578063a9a981a3146103e7578063aad2406114610405578063af270ee314610435576101cd565b8063715018a6146103975780637f2c2fbf146103a157806381685540146103bf576101cd565b80632f02ed251161016f5780633c3a220d116101495780633c3a220d1461030f57806347cf6f761461033f5780635c975abb1461035d57806360f0a5ac1461037b576101cd565b80632f02ed25146102b557806332b521d0146102d1578063359af4b2146102ed576101cd565b8063179ff4b2116101ab578063179ff4b21461022b5780631ea736e0146102495780632019a6081461026757806329e295c514610285576101cd565b806305e2361e146101d15780630d15fd77146101ef5780630ef53a151461020d575b5f5ffd5b6101d9610561565b6040516101e69190611644565b60405180910390f35b6101f7610573565b6040516102049190611675565b60405180910390f35b610215610579565b6040516102229190611708565b60405180910390f35b61023361059d565b60405161024091906117e9565b60405180910390f35b610251610628565b60405161025e9190611675565b60405180910390f35b61026f61062e565b60405161027c9190611675565b60405180910390f35b61029f600480360381019061029a9190611837565b610634565b6040516102ac9190611644565b60405180910390f35b6102cf60048036038101906102ca919061188c565b610651565b005b6102eb60048036038101906102e69190611957565b610796565b005b6102f5610af0565b6040516103069594939291906119f8565b60405180910390f35b61032960048036038101906103249190611a49565b610b15565b6040516103369190611675565b60405180910390f35b610347610b2a565b6040516103549190611644565b60405180910390f35b610365610b6c565b6040516103729190611644565b60405180910390f35b61039560048036038101906103909190611837565b610b81565b005b61039f610e29565b005b6103a9610e3c565b6040516103b69190611b2b565b60405180910390f35b6103c7610f0e565b005b6103d1610f20565b6040516103de9190611b5a565b60405180910390f35b6103ef610f47565b6040516103fc9190611675565b60405180910390f35b61041f600480360381019061041a9190611a49565b610f4d565b60405161042c9190611644565b60405180910390f35b61044f600480360381019061044a9190611a49565b610f6a565b60405161045c9190611b5a565b60405180910390f35b61047f600480360381019061047a9190611a49565b610fa5565b60405161048c9190611675565b60405180910390f35b6104af60048036038101906104aa9190611a49565b610fbf565b6040516104bc9190611644565b60405180910390f35b6104cd610fe5565b6040516104da9190611b2b565b60405180910390f35b6104fd60048036038101906104f89190611837565b61108a565b005b610507611285565b6040516105149190611675565b60405180910390f35b61052561128b565b6040516105329190611675565b60405180910390f35b61055560048036038101906105509190611837565b6112b2565b005b61055f611336565b005b60065f9054906101000a900460ff1681565b60095481565b7f000000000000000000000000000000000000000000000000000000000000000081565b6060600c80548060200260200160405190810160405280929190818152602001828054801561061e57602002820191905f5260205f20905b815f9054906101000a900473ffffffffffffffffffffffffffffffffffffffff1673ffffffffffffffffffffffffffffffffffffffff16815260200190600101908083116105d5575b5050505050905090565b60055481565b60045481565b600b602052805f5260405f205f915054906101000a900460ff1681565b610659611348565b60065f9054906101000a900460ff161561069f576040517ff88b294f00000000000000000000000000000000000000000000000000000000815260040160405180910390fd5b81831015806106ad57504283105b156106e4576040517f536a71af00000000000000000000000000000000000000000000000000000000815260040160405180910390fd5b5f810361071d576040517fe66ea08f00000000000000000000000000000000000000000000000000000000815260040160405180910390fd5b83600381905550826004819055508160058190555080600a81905550600160065f6101000a81548160ff0219169083151502179055507f642f032d4b5dddc09c81f76537e236138e026320f82713a6d9d59a939c144fd8848484846040516107889493929190611b73565b60405180910390a150505050565b61079e6113cf565b6107a6611415565b6004544210806107b7575060055442115b156107ee576040517f9b8cc47500000000000000000000000000000000000000000000000000000000815260040160405180910390fd5b600b5f3373ffffffffffffffffffffffffffffffffffffffff1673ffffffffffffffffffffffffffffffffffffffff1681526020019081526020015f205f9054906101000a900460ff1661086e576040517f3c20627b00000000000000000000000000000000000000000000000000000000815260040160405180910390fd5b600a5487106108a9576040517fe66ea08f00000000000000000000000000000000000000000000000000000000815260040160405180910390fd5b815f600481106108bc576108bb611bb6565b5b602002013587146108f9576040517fe66ea08f00000000000000000000000000000000000000000000000000000000815260040160405180910390fd5b60085f8781526020019081526020015f205f9054906101000a900460ff161561094e576040517fcad2ae0200000000000000000000000000000000000000000000000000000000815260040160405180910390fd5b5f7f000000000000000000000000000000000000000000000000000000000000000073ffffffffffffffffffffffffffffffffffffffff1663a23f019987878787876040518663ffffffff1660e01b81526004016109b0959493929190611cc4565b602060405180830381865afa1580156109cb573d5f5f3e3d5ffd5b505050506040513d601f19601f820116820180604052508101906109ef9190611d42565b905080610a28576040517f09bde33900000000000000000000000000000000000000000000000000000000815260040160405180910390fd5b600160085f8981526020019081526020015f205f6101000a81548160ff02191690831515021790555060075f8981526020019081526020015f205f815480929190610a7290611d9a565b919050555060095f815480929190610a8990611d9a565b91905055503373ffffffffffffffffffffffffffffffffffffffff1687897ff6ed5a0362706e33942c258dd867d1664e91a7653843a7c3459a857db97287ae42604051610ad69190611675565b60405180910390a450610ae7611456565b50505050505050565b5f5f5f5f5f600354600454600554600a54600954945094509450945094509091929394565b6007602052805f5260405f205f915090505481565b5f60065f9054906101000a900460ff168015610b4857506004544210155b8015610b5657506005544211155b8015610b675750610b65610b6c565b155b905090565b5f60025f9054906101000a900460ff16905090565b610b89611348565b600b5f8273ffffffffffffffffffffffffffffffffffffffff1673ffffffffffffffffffffffffffffffffffffffff1681526020019081526020015f205f9054906101000a900460ff16610c12576040517f08c379a0000000000000000000000000000000000000000000000000000000008152600401610c0990611e3b565b60405180910390fd5b5f600b5f8373ffffffffffffffffffffffffffffffffffffffff1673ffffffffffffffffffffffffffffffffffffffff1681526020019081526020015f205f6101000a81548160ff0219169083151502179055505f5f90505b600c80549050811015610de2578173ffffffffffffffffffffffffffffffffffffffff16600c8281548110610ca357610ca2611bb6565b5b905f5260205f20015f9054906101000a900473ffffffffffffffffffffffffffffffffffffffff1673ffffffffffffffffffffffffffffffffffffffff1603610dd557600c6001600c80549050610cfa9190611e59565b81548110610d0b57610d0a611bb6565b5b905f5260205f20015f9054906101000a900473ffffffffffffffffffffffffffffffffffffffff16600c8281548110610d4757610d46611bb6565b5b905f5260205f20015f6101000a81548173ffffffffffffffffffffffffffffffffffffffff021916908373ffffffffffffffffffffffffffffffffffffffff160217905550600c805480610d9e57610d9d611e8c565b5b600190038181905f5260205f20015f6101000a81549073ffffffffffffffffffffffffffffffffffffffff02191690559055610de2565b8080600101915050610c6b565b508073ffffffffffffffffffffffffffffffffffffffff167f10e1f7ce9fd7d1b90a66d13a2ab3cb8dd7f29f3f8d520b143b063ccfbab6906b60405160405180910390a250565b610e31611348565b610e3a5f61145f565b565b60605f600a5467ffffffffffffffff811115610e5b57610e5a611eb9565b5b604051908082528060200260200182016040528015610e895781602001602082028036833780820191505090505b5090505f60095403610e9e5780915050610f0b565b5f5f90505b600a54811015610f055760095461271060075f8481526020019081526020015f2054610ecf9190611ee6565b610ed99190611f54565b828281518110610eec57610eeb611bb6565b5b6020026020010181815250508080600101915050610ea3565b50809150505b90565b610f16611348565b610f1e611520565b565b5f5f5f9054906101000a900473ffffffffffffffffffffffffffffffffffffffff16905090565b600a5481565b6008602052805f5260405f205f915054906101000a900460ff1681565b600c8181548110610f79575f80fd5b905f5260205f20015f915054906101000a900473ffffffffffffffffffffffffffffffffffffffff1681565b5f60075f8381526020019081526020015f20549050919050565b5f60085f8381526020019081526020015f205f9054906101000a900460ff169050919050565b60605f600a5467ffffffffffffffff81111561100457611003611eb9565b5b6040519080825280602002602001820160405280156110325781602001602082028036833780820191505090505b5090505f5f90505b600a548110156110825760075f8281526020019081526020015f205482828151811061106957611068611bb6565b5b602002602001018181525050808060010191505061103a565b508091505090565b611092611348565b5f73ffffffffffffffffffffffffffffffffffffffff168173ffffffffffffffffffffffffffffffffffffffff1603611100576040517f08c379a00000000000000000000000000000000000000000000000000000000081526004016110f790611fce565b60405180910390fd5b600b5f8273ffffffffffffffffffffffffffffffffffffffff1673ffffffffffffffffffffffffffffffffffffffff1681526020019081526020015f205f9054906101000a900460ff161561118a576040517f08c379a000000000000000000000000000000000000000000000000000000000815260040161118190612036565b60405180910390fd5b6001600b5f8373ffffffffffffffffffffffffffffffffffffffff1673ffffffffffffffffffffffffffffffffffffffff1681526020019081526020015f205f6101000a81548160ff021916908315150217905550600c81908060018154018082558091505060019003905f5260205f20015f9091909190916101000a81548173ffffffffffffffffffffffffffffffffffffffff021916908373ffffffffffffffffffffffffffffffffffffffff1602179055508073ffffffffffffffffffffffffffffffffffffffff167f03580ee9f53a62b7cb409a2cb56f9be87747dd15017afc5cef6eef321e4fb2c560405160405180910390a250565b60035481565b5f60055442111561129e575f90506112af565b426005546112ac9190611e59565b90505b90565b6112ba611348565b5f73ffffffffffffffffffffffffffffffffffffffff168173ffffffffffffffffffffffffffffffffffffffff160361132a575f6040517f1e4fbdf70000000000000000000000000000000000000000000000000000000081526004016113219190611b5a565b60405180910390fd5b6113338161145f565b50565b61133e611348565b611346611581565b565b6113506115e3565b73ffffffffffffffffffffffffffffffffffffffff1661136e610f20565b73ffffffffffffffffffffffffffffffffffffffff16146113cd576113916115e3565b6040517f118cdaa70000000000000000000000000000000000000000000000000000000081526004016113c49190611b5a565b60405180910390fd5b565b60026001540361140b576040517f3ee5aeb500000000000000000000000000000000000000000000000000000000815260040160405180910390fd5b6002600181905550565b61141d610b6c565b15611454576040517fd93c066500000000000000000000000000000000000000000000000000000000815260040160405180910390fd5b565b60018081905550565b5f5f5f9054906101000a900473ffffffffffffffffffffffffffffffffffffffff169050815f5f6101000a81548173ffffffffffffffffffffffffffffffffffffffff021916908373ffffffffffffffffffffffffffffffffffffffff1602179055508173ffffffffffffffffffffffffffffffffffffffff168173ffffffffffffffffffffffffffffffffffffffff167f8be0079c531659141344cd1fd0a4f28419497f9722a3daafe3b4186f6b6457e060405160405180910390a35050565b6115286115ea565b5f60025f6101000a81548160ff0219169083151502179055507f5db9ee0a495bf2e6ff9c91a7834c1ba4fdd244a5e8aa4e537bd38aeae4b073aa61156a6115e3565b6040516115779190611b5a565b60405180910390a1565b611589611415565b600160025f6101000a81548160ff0219169083151502179055507f62e78cea01bee320cd4e420270b5ea74000d11b0c9f74754ebdbfc544b05a2586115cc6115e3565b6040516115d99190611b5a565b60405180910390a1565b5f33905090565b6115f2610b6c565b611628576040517f8dfc202b00000000000000000000000000000000000000000000000000000000815260040160405180910390fd5b565b5f8115159050919050565b61163e8161162a565b82525050565b5f6020820190506116575f830184611635565b92915050565b5f819050919050565b61166f8161165d565b82525050565b5f6020820190506116885f830184611666565b92915050565b5f73ffffffffffffffffffffffffffffffffffffffff82169050919050565b5f819050919050565b5f6116d06116cb6116c68461168e565b6116ad565b61168e565b9050919050565b5f6116e1826116b6565b9050919050565b5f6116f2826116d7565b9050919050565b611702816116e8565b82525050565b5f60208201905061171b5f8301846116f9565b92915050565b5f81519050919050565b5f82825260208201905092915050565b5f819050602082019050919050565b5f6117548261168e565b9050919050565b6117648161174a565b82525050565b5f611775838361175b565b60208301905092915050565b5f602082019050919050565b5f61179782611721565b6117a1818561172b565b93506117ac8361173b565b805f5b838110156117dc5781516117c3888261176a565b97506117ce83611781565b9250506001810190506117af565b5085935050505092915050565b5f6020820190508181035f830152611801818461178d565b905092915050565b5f5ffd5b6118168161174a565b8114611820575f5ffd5b50565b5f813590506118318161180d565b92915050565b5f6020828403121561184c5761184b611809565b5b5f61185984828501611823565b91505092915050565b61186b8161165d565b8114611875575f5ffd5b50565b5f8135905061188681611862565b92915050565b5f5f5f5f608085870312156118a4576118a3611809565b5b5f6118b187828801611878565b94505060206118c287828801611878565b93505060406118d387828801611878565b92505060606118e487828801611878565b91505092959194509250565b5f5ffd5b5f8190508260206002028201111561190f5761190e6118f0565b5b92915050565b5f819050826040600202820111156119305761192f6118f0565b5b92915050565b5f81905082602060040282011115611951576119506118f0565b5b92915050565b5f5f5f5f5f5f5f6101e0888a03121561197357611972611809565b5b5f6119808a828b01611878565b97505060206119918a828b01611878565b96505060406119a28a828b016118f4565b95505060806119b38a828b01611915565b9450506101006119c58a828b016118f4565b9350506101406119d78a828b01611936565b9250506101c06119e98a828b01611878565b91505092959891949750929550565b5f60a082019050611a0b5f830188611666565b611a186020830187611666565b611a256040830186611666565b611a326060830185611666565b611a3f6080830184611666565b9695505050505050565b5f60208284031215611a5e57611a5d611809565b5b5f611a6b84828501611878565b91505092915050565b5f81519050919050565b5f82825260208201905092915050565b5f819050602082019050919050565b611aa68161165d565b82525050565b5f611ab78383611a9d565b60208301905092915050565b5f602082019050919050565b5f611ad982611a74565b611ae38185611a7e565b9350611aee83611a8e565b805f5b83811015611b1e578151611b058882611aac565b9750611b1083611ac3565b925050600181019050611af1565b5085935050505092915050565b5f6020820190508181035f830152611b438184611acf565b905092915050565b611b548161174a565b82525050565b5f602082019050611b6d5f830184611b4b565b92915050565b5f608082019050611b865f830187611666565b611b936020830186611666565b611ba06040830185611666565b611bad6060830184611666565b95945050505050565b7f4e487b71000000000000000000000000000000000000000000000000000000005f52603260045260245ffd5b82818337505050565b611bf860408383611be3565b5050565b5f60029050919050565b5f81905092915050565b5f819050919050565b611c2560408383611be3565b5050565b5f611c348383611c19565b60408301905092915050565b5f82905092915050565b5f604082019050919050565b611c5f81611bfc565b611c698184611c06565b9250611c7482611c10565b805f5b83811015611cac57611c898284611c40565b611c938782611c29565b9650611c9e83611c4a565b925050600181019050611c77565b505050505050565b611cc060808383611be3565b5050565b5f6101a082019050611cd85f830188611bec565b611ce56040830187611c56565b611cf260c0830186611bec565b611d00610100830185611cb4565b611d0e610180830184611666565b9695505050505050565b611d218161162a565b8114611d2b575f5ffd5b50565b5f81519050611d3c81611d18565b92915050565b5f60208284031215611d5757611d56611809565b5b5f611d6484828501611d2e565b91505092915050565b7f4e487b71000000000000000000000000000000000000000000000000000000005f52601160045260245ffd5b5f611da48261165d565b91507fffffffffffffffffffffffffffffffffffffffffffffffffffffffffffffffff8203611dd657611dd5611d6d565b5b600182019050919050565b5f82825260208201905092915050565b7f52656c61796572206e6f7420666f756e640000000000000000000000000000005f82015250565b5f611e25601183611de1565b9150611e3082611df1565b602082019050919050565b5f6020820190508181035f830152611e5281611e19565b9050919050565b5f611e638261165d565b9150611e6e8361165d565b9250828203905081811115611e8657611e85611d6d565b5b92915050565b7f4e487b71000000000000000000000000000000000000000000000000000000005f52603160045260245ffd5b7f4e487b71000000000000000000000000000000000000000000000000000000005f52604160045260245ffd5b5f611ef08261165d565b9150611efb8361165d565b9250828202611f098161165d565b91508282048414831517611f2057611f1f611d6d565b5b5092915050565b7f4e487b71000000000000000000000000000000000000000000000000000000005f52601260045260245ffd5b5f611f5e8261165d565b9150611f698361165d565b925082611f7957611f78611f27565b5b828204905092915050565b7f496e76616c69642072656c6179657220616464726573730000000000000000005f82015250565b5f611fb8601783611de1565b9150611fc382611f84565b602082019050919050565b5f6020820190508181035f830152611fe581611fac565b9050919050565b7f52656c6179657220616c726561647920657869737473000000000000000000005f82015250565b5f612020601683611de1565b915061202b82611fec565b602082019050919050565b5f6020820190508181035f83015261204d81612014565b905091905056fea26469706673582212204f0166ed4670efb098f8d6fad5e434fd4459f3f96f8dd86ac9e581e30afaba1064736f6c634300081e0033","linkReferences":{}},"methodIdentifiers":{"addRelayer(address)":"dd39f00d","authorizedRelayers(address)":"29e295c5","candidateCount()":"a9a981a3","castVote(uint256,uint256,uint256[2],uint256[2][2],uint256[2],uint256[4],uint256)":"32b521d0","getAllVoteCounts()":"cd59f237","getRelayers()":"179ff4b2","getRemainingTime()":"efb98bcf","getResultPercentages()":"7f2c2fbf","getVoteCount(uint256)":"b2c2f2e8","getVotingInfo()":"359af4b2","initializeVoting(uint256,uint256,uint256,uint256)":"2f02ed25","isNullifierUsed(uint256)":"c6c0572d","isVotingActive()":"47cf6f76","owner()":"8da5cb5b","pauseVoting()":"f3cdcd1e","paused()":"5c975abb","relayerAddresses(uint256)":"af270ee3","removeRelayer(address)":"60f0a5ac","renounceOwnership()":"715018a6","semaphoreVerifier()":"0ef53a15","totalVotes()":"0d15fd77","transferOwnership(address)":"f2fde38b","unpauseVoting()":"81685540","usedNullifiers(uint256)":"aad24061","voteCounts(uint256)":"3c3a220d","votingEndTime()":"1ea736e0","votingGroupId()":"e7e7dddd","votingInitialized()":"05e2361e","votingStartTime()":"2019a608"},"id":26}