{"abi":[{"type":"function","name":"getVerifierInfo","inputs":[],"outputs":[{"name":"","type":"string","internalType":"string"}],"stateMutability":"pure"},{"type":"function","name":"verifyProof","inputs":[{"name":"a","type":"uint256[2]","internalType":"uint256[2]"},{"name":"b","type":"uint256[2][2]","internalType":"uint256[2][2]"},{"name":"c","type":"uint256[2]","internalType":"uint256[2]"},{"name":"publicSignals","type":"uint256[4]","internalType":"uint256[4]"},{"name":"merkleTreeDepth","type":"uint256","internalType":"uint256"}],"outputs":[{"name":"","type":"bool","internalType":"bool"}],"stateMutability":"pure"}],"bytecode":{"object":"0x6080604052348015600e575f5ffd5b506106578061001c5f395ff3fe608060405234801561000f575f5ffd5b5060043610610034575f3560e01c8063a23f019914610038578063e215abff14610068575b5f5ffd5b610052600480360381019061004d91906102ad565b610086565b60405161005f9190610341565b60405180910390f35b6100706101ef565b60405161007d91906103ca565b60405180910390f35b5f600480146100ca576040517f08c379a00000000000000000000000000000000000000000000000000000000081526004016100c190610434565b60405180910390fd5b5f821180156100da575060208211155b610119576040517f08c379a00000000000000000000000000000000000000000000000000000000081526004016101109061049c565b60405180910390fd5b6002801461015c576040517f08c379a000000000000000000000000000000000000000000000000000000000815260040161015390610504565b60405180910390fd5b6002801461019f576040517f08c379a00000000000000000000000000000000000000000000000000000000081526004016101969061056c565b60405180910390fd5b600280146101e2576040517f08c379a00000000000000000000000000000000000000000000000000000000081526004016101d9906105d4565b60405180910390fd5b6001905095945050505050565b60606040518060600160405280602f81526020016105f3602f9139905090565b5f5ffd5b5f5ffd5b5f8190508260206002028201111561023257610231610213565b5b92915050565b5f8190508260406002028201111561025357610252610213565b5b92915050565b5f8190508260206004028201111561027457610273610213565b5b92915050565b5f819050919050565b61028c8161027a565b8114610296575f5ffd5b50565b5f813590506102a781610283565b92915050565b5f5f5f5f5f6101a086880312156102c7576102c661020f565b5b5f6102d488828901610217565b95505060406102e588828901610238565b94505060c06102f688828901610217565b93505061010061030888828901610259565b92505061018061031a88828901610299565b9150509295509295909350565b5f8115159050919050565b61033b81610327565b82525050565b5f6020820190506103545f830184610332565b92915050565b5f81519050919050565b5f82825260208201905092915050565b8281835e5f83830152505050565b5f601f19601f8301169050919050565b5f61039c8261035a565b6103a68185610364565b93506103b6818560208601610374565b6103bf81610382565b840191505092915050565b5f6020820190508181035f8301526103e28184610392565b905092915050565b7f496e76616c6964207075626c6963207369676e616c73206c656e6774680000005f82015250565b5f61041e601d83610364565b9150610429826103ea565b602082019050919050565b5f6020820190508181035f83015261044b81610412565b9050919050565b7f496e76616c6964206d65726b6c652074726565206465707468000000000000005f82015250565b5f610486601983610364565b915061049182610452565b602082019050919050565b5f6020820190508181035f8301526104b38161047a565b9050919050565b7f496e76616c69642070726f6f6620636f6d706f6e656e742061000000000000005f82015250565b5f6104ee601983610364565b91506104f9826104ba565b602082019050919050565b5f6020820190508181035f83015261051b816104e2565b9050919050565b7f496e76616c69642070726f6f6620636f6d706f6e656e742062000000000000005f82015250565b5f610556601983610364565b915061056182610522565b602082019050919050565b5f6020820190508181035f8301526105838161054a565b9050919050565b7f496e76616c69642070726f6f6620636f6d706f6e656e742063000000000000005f82015250565b5f6105be601983610364565b91506105c98261058a565b602082019050919050565b5f6020820190508181035f8301526105eb816105b2565b905091905056fe53696d706c6553656d6170686f726556657269666965722076312e30202d20464f522054455354494e47204f4e4c59a2646970667358221220f5593a9403b82625de6edb13c5fb2e0a92375a5436b56c6dfc93a6078c8f1bcf64736f6c634300081e0033","linkReferences":{}},"methodIdentifiers":{"getVerifierInfo()":"e215abff","verifyProof(uint256[2],uint256[2][2],uint256[2],uint256[4],uint256)":"a23f0199"},"id":21}